{
  "contractName": "Fomo",
  "abi": [
    {
      "constant": true,
      "inputs": [],
      "name": "gameCreator",
      "outputs": [
        {
          "name": "",
          "type": "address"
        }
      ],
      "payable": false,
      "stateMutability": "view",
      "type": "function"
    },
    {
      "constant": true,
      "inputs": [],
      "name": "lastWinTime",
      "outputs": [
        {
          "name": "",
          "type": "uint256"
        }
      ],
      "payable": false,
      "stateMutability": "view",
      "type": "function"
    },
    {
      "constant": true,
      "inputs": [],
      "name": "lastTime",
      "outputs": [
        {
          "name": "",
          "type": "uint256"
        }
      ],
      "payable": false,
      "stateMutability": "view",
      "type": "function"
    },
    {
      "constant": true,
      "inputs": [],
      "name": "lastWinAmount",
      "outputs": [
        {
          "name": "",
          "type": "uint256"
        }
      ],
      "payable": false,
      "stateMutability": "view",
      "type": "function"
    },
    {
      "constant": true,
      "inputs": [],
      "name": "gameTime",
      "outputs": [
        {
          "name": "",
          "type": "uint256"
        }
      ],
      "payable": false,
      "stateMutability": "view",
      "type": "function"
    },
    {
      "constant": true,
      "inputs": [],
      "name": "currentWinAmount",
      "outputs": [
        {
          "name": "",
          "type": "uint256"
        }
      ],
      "payable": false,
      "stateMutability": "view",
      "type": "function"
    },
    {
      "constant": true,
      "inputs": [],
      "name": "lastPlayer",
      "outputs": [
        {
          "name": "",
          "type": "address"
        }
      ],
      "payable": false,
      "stateMutability": "view",
      "type": "function"
    },
    {
      "constant": true,
      "inputs": [],
      "name": "minFeeValue",
      "outputs": [
        {
          "name": "",
          "type": "uint256"
        }
      ],
      "payable": false,
      "stateMutability": "view",
      "type": "function"
    },
    {
      "constant": true,
      "inputs": [],
      "name": "lastWinner",
      "outputs": [
        {
          "name": "",
          "type": "address"
        }
      ],
      "payable": false,
      "stateMutability": "view",
      "type": "function"
    },
    {
      "inputs": [],
      "payable": false,
      "stateMutability": "nonpayable",
      "type": "constructor"
    },
    {
      "anonymous": false,
      "inputs": [
        {
          "indexed": false,
          "name": "_pay_addr",
          "type": "address"
        }
      ],
      "name": "payEvent",
      "type": "event"
    },
    {
      "anonymous": false,
      "inputs": [
        {
          "indexed": true,
          "name": "_winner",
          "type": "address"
        }
      ],
      "name": "WinnerAnnouncement",
      "type": "event"
    },
    {
      "anonymous": false,
      "inputs": [
        {
          "indexed": false,
          "name": "description",
          "type": "string"
        }
      ],
      "name": "LogInfo",
      "type": "event"
    },
    {
      "constant": false,
      "inputs": [],
      "name": "announceWinner",
      "outputs": [
        {
          "name": "",
          "type": "bool"
        }
      ],
      "payable": false,
      "stateMutability": "nonpayable",
      "type": "function"
    },
    {
      "constant": false,
      "inputs": [],
      "name": "buyTicket",
      "outputs": [
        {
          "name": "success",
          "type": "bool"
        }
      ],
      "payable": true,
      "stateMutability": "payable",
      "type": "function"
    },
    {
      "constant": false,
      "inputs": [
        {
          "name": "myid",
          "type": "bytes32"
        },
        {
          "name": "result",
          "type": "string"
        }
      ],
      "name": "__callback",
      "outputs": [],
      "payable": false,
      "stateMutability": "nonpayable",
      "type": "function"
    },
    {
      "constant": false,
      "inputs": [
        {
          "name": "id",
          "type": "bytes32"
        },
        {
          "name": "result",
          "type": "string"
        },
        {
          "name": "proof",
          "type": "bytes"
        }
      ],
      "name": "__callback",
      "outputs": [],
      "payable": false,
      "stateMutability": "nonpayable",
      "type": "function"
    },
    {
      "constant": false,
      "inputs": [
        {
          "name": "timeInterval",
          "type": "uint256"
        }
      ],
      "name": "changeGameTime",
      "outputs": [],
      "payable": false,
      "stateMutability": "nonpayable",
      "type": "function"
    }
  ],
  "bytecode": "0x6080604052603c600b5534801561001557600080fd5b506000600560006101000a81548173ffffffffffffffffffffffffffffffffffffffff021916908373ffffffffffffffffffffffffffffffffffffffff160217905550426006819055506000600860006101000a81548173ffffffffffffffffffffffffffffffffffffffff021916908373ffffffffffffffffffffffffffffffffffffffff16021790555060006009819055506000600a81905550600060078190555033600c60006101000a81548173ffffffffffffffffffffffffffffffffffffffff021916908373ffffffffffffffffffffffffffffffffffffffff16021790555061154d806101096000396000f3006080604052600436106100d0576000357c0100000000000000000000000000000000000000000000000000000000900463ffffffff16806327dc297e146100d55780632d8cd0961461014c57806337b1b2291461017b57806338bbfa50146101d25780636bea9a481461028f57806393e9a084146102ba57806398ec58fd146102e5578063a5d1c0c014610310578063d2df28a51461033b578063e3450e1314610366578063e7478186146103bd578063edca914c146103e8578063f5e5a8531461040a578063fe18818414610437575b600080fd5b3480156100e157600080fd5b5061014a6004803603810190808035600019169060200190929190803590602001908201803590602001908080601f016020809104026020016040519081016040528093929190818152602001838380828437820191505050505050919291929050505061048e565b005b34801561015857600080fd5b506101616104d1565b604051808215151515815260200191505060405180910390f35b34801561018757600080fd5b50610190610683565b604051808273ffffffffffffffffffffffffffffffffffffffff1673ffffffffffffffffffffffffffffffffffffffff16815260200191505060405180910390f35b3480156101de57600080fd5b5061028d6004803603810190808035600019169060200190929190803590602001908201803590602001908080601f0160208091040260200160405190810160405280939291908181526020018383808284378201915050505050509192919290803590602001908201803590602001908080601f01602080910402602001604051908101604052809392919081815260200183838082843782019150505050505091929192905050506106a9565b005b34801561029b57600080fd5b506102a46106ca565b6040518082815260200191505060405180910390f35b3480156102c657600080fd5b506102cf6106d0565b6040518082815260200191505060405180910390f35b3480156102f157600080fd5b506102fa6106d6565b6040518082815260200191505060405180910390f35b34801561031c57600080fd5b506103256106dc565b6040518082815260200191505060405180910390f35b34801561034757600080fd5b506103506106e2565b6040518082815260200191505060405180910390f35b34801561037257600080fd5b5061037b6106e8565b604051808273ffffffffffffffffffffffffffffffffffffffff1673ffffffffffffffffffffffffffffffffffffffff16815260200191505060405180910390f35b3480156103c957600080fd5b506103d261070e565b6040518082815260200191505060405180910390f35b6103f0610713565b604051808215151515815260200191505060405180910390f35b34801561041657600080fd5b50610435600480360381019080803590602001909291905050506108fa565b005b34801561044357600080fd5b5061044c6109ef565b604051808273ffffffffffffffffffffffffffffffffffffffff1673ffffffffffffffffffffffffffffffffffffffff16815260200191505060405180910390f35b6104cd828260006040519080825280601f01601f1916602001820160405280156104c75781602001602082028038833980820191505090505b506106a9565b5050565b6000600560009054906101000a900473ffffffffffffffffffffffffffffffffffffffff1673ffffffffffffffffffffffffffffffffffffffff166108fc3073ffffffffffffffffffffffffffffffffffffffff16319081150290604051600060405180830381858888f19350505050158015610552573d6000803e3d6000fd5b50600560009054906101000a900473ffffffffffffffffffffffffffffffffffffffff16600860006101000a81548173ffffffffffffffffffffffffffffffffffffffff021916908373ffffffffffffffffffffffffffffffffffffffff16021790555060075460098190555060006007819055506000600560006101000a81548173ffffffffffffffffffffffffffffffffffffffff021916908373ffffffffffffffffffffffffffffffffffffffff1602179055504260068190555042600a81905550600860009054906101000a900473ffffffffffffffffffffffffffffffffffffffff1673ffffffffffffffffffffffffffffffffffffffff167f7c0a53cca86e1d4a36e84322bf89a017f3323ee7c6d3821ded712eb529a12aa960405160405180910390a26001905090565b600c60009054906101000a900473ffffffffffffffffffffffffffffffffffffffff1681565b600d5460001916836000191614156106c5576106c36104d1565b505b505050565b600a5481565b60065481565b60095481565b600b5481565b60075481565b600560009054906101000a900473ffffffffffffffffffffffffffffffffffffffff1681565b600181565b60006001341115156107d9576040517f08c379a000000000000000000000000000000000000000000000000000000000815260040180806020018281038252604b8152602001807f4f7261636c697a6520717565727920776173204e4f542073656e742c20706c6581526020017f6173652061646420736f6d652045544820746f20636f76657220666f7220746881526020017f652071756572792066656500000000000000000000000000000000000000000081525060600191505060405180910390fd5b6001340360076000828254019250508190555033600560006101000a81548173ffffffffffffffffffffffffffffffffffffffff021916908373ffffffffffffffffffffffffffffffffffffffff160217905550426006819055507f67afd3a029717e567632dc3e5c5f80f528d6ac8261f6728bf385794437fb216c33604051808273ffffffffffffffffffffffffffffffffffffffff1673ffffffffffffffffffffffffffffffffffffffff16815260200191505060405180910390a16108e9600b546040805190810160405280600381526020017f55524c00000000000000000000000000000000000000000000000000000000008152506020604051908101604052806000815250610a15565b600d81600019169055506001905090565b600c60009054906101000a900473ffffffffffffffffffffffffffffffffffffffff1673ffffffffffffffffffffffffffffffffffffffff163373ffffffffffffffffffffffffffffffffffffffff161415156109e5576040517f08c379a000000000000000000000000000000000000000000000000000000000815260040180806020018281038252603b8152602001807f4368616e67696e672067616d652074696d6520696e74657276616c732069732081526020017f616c6c6f776564206f6e6c79206279207468652063726561746f72000000000081525060400191505060405180910390fd5b80600b8190555050565b600860009054906101000a900473ffffffffffffffffffffffffffffffffffffffff1681565b60008060008060009054906101000a900473ffffffffffffffffffffffffffffffffffffffff1673ffffffffffffffffffffffffffffffffffffffff161480610a8757506000610a856000809054906101000a900473ffffffffffffffffffffffffffffffffffffffff16610fb7565b145b15610a9857610a966000610fc2565b505b6000809054906101000a900473ffffffffffffffffffffffffffffffffffffffff1673ffffffffffffffffffffffffffffffffffffffff166338cc48316040518163ffffffff167c0100000000000000000000000000000000000000000000000000000000028152600401602060405180830381600087803b158015610b1d57600080fd5b505af1158015610b31573d6000803e3d6000fd5b505050506040513d6020811015610b4757600080fd5b810190808051906020019092919050505073ffffffffffffffffffffffffffffffffffffffff16600160009054906101000a900473ffffffffffffffffffffffffffffffffffffffff1673ffffffffffffffffffffffffffffffffffffffff16141515610caf576000809054906101000a900473ffffffffffffffffffffffffffffffffffffffff1673ffffffffffffffffffffffffffffffffffffffff166338cc48316040518163ffffffff167c0100000000000000000000000000000000000000000000000000000000028152600401602060405180830381600087803b158015610c3357600080fd5b505af1158015610c47573d6000803e3d6000fd5b505050506040513d6020811015610c5d57600080fd5b8101908080519060200190929190505050600160006101000a81548173ffffffffffffffffffffffffffffffffffffffff021916908373ffffffffffffffffffffffffffffffffffffffff1602179055505b600160009054906101000a900473ffffffffffffffffffffffffffffffffffffffff1673ffffffffffffffffffffffffffffffffffffffff1663524f3889856040518263ffffffff167c01000000000000000000000000000000000000000000000000000000000281526004018080602001828103825283818151815260200191508051906020019080838360005b83811015610d59578082015181840152602081019050610d3e565b50505050905090810190601f168015610d865780820380516001836020036101000a031916815260200191505b5092505050602060405180830381600087803b158015610da557600080fd5b505af1158015610db9573d6000803e3d6000fd5b505050506040513d6020811015610dcf57600080fd5b8101908080519060200190929190505050905062030d403a02670de0b6b3a764000001811115610e055760006001029150610faf565b600160009054906101000a900473ffffffffffffffffffffffffffffffffffffffff1673ffffffffffffffffffffffffffffffffffffffff1663adf59f99828787876040518563ffffffff167c0100000000000000000000000000000000000000000000000000000000028152600401808481526020018060200180602001838103835285818151815260200191508051906020019080838360005b83811015610ebc578082015181840152602081019050610ea1565b50505050905090810190601f168015610ee95780820380516001836020036101000a031916815260200191505b50838103825284818151815260200191508051906020019080838360005b83811015610f22578082015181840152602081019050610f07565b50505050905090810190601f168015610f4f5780820380516001836020036101000a031916815260200191505b50955050505050506020604051808303818588803b158015610f7057600080fd5b505af1158015610f84573d6000803e3d6000fd5b50505050506040513d6020811015610f9b57600080fd5b810190808051906020019092919050505091505b509392505050565b6000813b9050919050565b6000610fcc610fd3565b9050919050565b600080610ff3731d3b2638a7cc9f2cb3d298a3da7a90b67e5506ed610fb7565b111561109457731d3b2638a7cc9f2cb3d298a3da7a90b67e5506ed6000806101000a81548173ffffffffffffffffffffffffffffffffffffffff021916908373ffffffffffffffffffffffffffffffffffffffff16021790555061108b6040805190810160405280600b81526020017f6574685f6d61696e6e6574000000000000000000000000000000000000000000815250611462565b6001905061145f565b60006110b373c03a2615d5efaf5f49f60b7bb6583eaec212fdf1610fb7565b11156111545773c03a2615d5efaf5f49f60b7bb6583eaec212fdf16000806101000a81548173ffffffffffffffffffffffffffffffffffffffff021916908373ffffffffffffffffffffffffffffffffffffffff16021790555061114b6040805190810160405280600c81526020017f6574685f726f707374656e330000000000000000000000000000000000000000815250611462565b6001905061145f565b600061117373b7a07bcf2ba2f2703b24c0691b5278999c59ac7e610fb7565b11156112145773b7a07bcf2ba2f2703b24c0691b5278999c59ac7e6000806101000a81548173ffffffffffffffffffffffffffffffffffffffff021916908373ffffffffffffffffffffffffffffffffffffffff16021790555061120b6040805190810160405280600981526020017f6574685f6b6f76616e0000000000000000000000000000000000000000000000815250611462565b6001905061145f565b600061123373146500cfd35b22e4a392fe0adc06de1a1368ed48610fb7565b11156112d45773146500cfd35b22e4a392fe0adc06de1a1368ed486000806101000a81548173ffffffffffffffffffffffffffffffffffffffff021916908373ffffffffffffffffffffffffffffffffffffffff1602179055506112cb6040805190810160405280600b81526020017f6574685f72696e6b656279000000000000000000000000000000000000000000815250611462565b6001905061145f565b60006112f3736f485c8bf6fc43ea212e93bbf8ce046c7f1cb475610fb7565b111561135657736f485c8bf6fc43ea212e93bbf8ce046c7f1cb4756000806101000a81548173ffffffffffffffffffffffffffffffffffffffff021916908373ffffffffffffffffffffffffffffffffffffffff1602179055506001905061145f565b60006113757320e12a1f859b3feae5fb2a0a32c18f5a65555bbf610fb7565b11156113d8577320e12a1f859b3feae5fb2a0a32c18f5a65555bbf6000806101000a81548173ffffffffffffffffffffffffffffffffffffffff021916908373ffffffffffffffffffffffffffffffffffffffff1602179055506001905061145f565b60006113f77351efaf4c8b3c9afbd5ab9f4bbc82784ab6ef8faa610fb7565b111561145a577351efaf4c8b3c9afbd5ab9f4bbc82784ab6ef8faa6000806101000a81548173ffffffffffffffffffffffffffffffffffffffff021916908373ffffffffffffffffffffffffffffffffffffffff1602179055506001905061145f565b600090505b90565b806002908051906020019061147892919061147c565b5050565b828054600181600116156101000203166002900490600052602060002090601f016020900481019282601f106114bd57805160ff19168380011785556114eb565b828001600101855582156114eb579182015b828111156114ea5782518255916020019190600101906114cf565b5b5090506114f891906114fc565b5090565b61151e91905b8082111561151a576000816000905550600101611502565b5090565b905600a165627a7a72305820880e556719dc6f935b233b3cc733a7641222260d9d0b049e870e176d53a5c8ea0029",
  "source": "pragma solidity ^0.4.24;\r\n//import { increaseTimeTo, duration } from './helpers/increaseTime';\r\n//import latestTime from './helpers/latestTime';\r\n//import \"installed_contracts/oraclize-api/contracts/usingOraclize.sol\";\r\nimport \"./usingOraclize.sol\";\r\n\r\ncontract Fomo is usingOraclize{\r\n\r\n      //Contract variable\r\n      address public lastPlayer;\r\n      uint public lastTime;\r\n\t    uint public currentWinAmount;\r\n\r\n      //Last contract variables\r\n      address public lastWinner;\r\n  \t  uint public lastWinAmount;\r\n  \t  uint public lastWinTime;\r\n\r\n      //contract configuration\r\n  \t  uint public constant minFeeValue = 1;\r\n  \t  uint256 public gameTime = 60; //Seconds\r\n  \t  address public gameCreator;\r\n\r\n      //store orcalize call back id\r\n      bytes32 private LastQueryId;\r\n\r\n\r\n      event payEvent (address _pay_addr);\r\n      //event WinnerAnnouncement(address indexed _winner, uint indexed _amount, uint indexed _lastWinTime);\r\n      event WinnerAnnouncement(address indexed _winner);\r\n      event LogInfo(string description);\r\n\r\n      // ...\r\n      // Constructor\r\n      constructor() public {\r\n            lastPlayer = 0;\r\n        \t\tlastTime = now;\r\n        \t\tlastWinner = 0;\r\n        \t\tlastWinAmount = 0;\r\n        \t\tlastWinTime = 0;\r\n        \t\tcurrentWinAmount = 0;\r\n        \t\tgameCreator = msg.sender;\r\n      }\r\n\r\n      function announceWinner ()  public returns (bool) {\r\n          lastPlayer.transfer(address(this).balance);\r\n          lastWinner = lastPlayer;\r\n          lastWinAmount = currentWinAmount;\r\n    \t\t  currentWinAmount = 0;\r\n    \t\t  lastPlayer = 0;\r\n    \t\t  lastTime = now;\r\n    \t\t  lastWinTime = now;\r\n          emit WinnerAnnouncement(lastWinner);//(lastWinner, lastWinAmount, lastWinTime);\r\n          return true;\r\n      }\r\n\r\n      function buyTicket() payable public returns(bool success) {\r\n          require(msg.value > minFeeValue, 'Oraclize query was NOT sent, please add some ETH to cover for the query fee');\r\n          currentWinAmount += msg.value - minFeeValue;\r\n          lastPlayer = msg.sender;\r\n          lastTime = now;\r\n\r\n          //emit LogInfo(\"Oraclize query was sent, standing by for the answer..\");\r\n          emit payEvent(msg.sender);\r\n          LastQueryId = oraclize_query(gameTime, \"URL\", \"\");\r\n          return true;\r\n      }\r\n\r\n      function __callback(bytes32 id, string result, bytes proof) public {\r\n          if (id == LastQueryId) {\r\n              announceWinner();\r\n            }\r\n       }\r\n\r\n      function changeGameTime(uint timeInterval) public onlyMaster {\r\n     \t\t gameTime = timeInterval;\r\n     \t}\r\n\r\n     \tmodifier onlyMaster() {\r\n     \t\t require(msg.sender == gameCreator, \"Changing game time intervals is allowed only by the creator\");\r\n     \t\t  _;\r\n     \t}\r\n\r\n\r\n}\r\n",
  "sourcePath": "c:\\kfir\\Technion\\048888\\Finalproject\\contracts\\Fomo.sol",
  "compiler": {
    "name": "solc",
    "version": "0.4.24+commit.e67f0147.Emscripten.clang"
  },
  "schemaVersion": "2.0.1",
  "updatedAt": "2018-12-05T00:50:10.301Z"
}